{
  "contractName": "ICO",
  "abi": [
    {
      "inputs": [],
      "stateMutability": "nonpayable",
      "type": "constructor"
    },
    {
      "inputs": [],
      "name": "campaignId",
      "outputs": [
        {
          "internalType": "uint256",
          "name": "",
          "type": "uint256"
        }
      ],
      "stateMutability": "view",
      "type": "function",
      "constant": true
    },
    {
      "inputs": [
        {
          "internalType": "uint256",
          "name": "",
          "type": "uint256"
        }
      ],
      "name": "campaigns",
      "outputs": [
        {
          "internalType": "address",
          "name": "initiator",
          "type": "address"
        },
        {
          "internalType": "uint256",
          "name": "participant",
          "type": "uint256"
        },
        {
          "internalType": "address",
          "name": "tokenAddress",
          "type": "address"
        },
        {
          "internalType": "uint256",
          "name": "campaignStartTime",
          "type": "uint256"
        },
        {
          "internalType": "uint256",
          "name": "campaignEndTime",
          "type": "uint256"
        },
        {
          "internalType": "uint256",
          "name": "tokenPerETHInCampaign",
          "type": "uint256"
        },
        {
          "internalType": "uint256",
          "name": "maxTokenLiquidity",
          "type": "uint256"
        },
        {
          "internalType": "uint256",
          "name": "tokenLiquidityAchived",
          "type": "uint256"
        }
      ],
      "stateMutability": "view",
      "type": "function",
      "constant": true
    },
    {
      "inputs": [
        {
          "internalType": "address",
          "name": "",
          "type": "address"
        }
      ],
      "name": "userDepositedCampaigns",
      "outputs": [
        {
          "internalType": "uint256",
          "name": "",
          "type": "uint256"
        }
      ],
      "stateMutability": "view",
      "type": "function",
      "constant": true
    },
    {
      "inputs": [
        {
          "internalType": "address",
          "name": "",
          "type": "address"
        }
      ],
      "name": "userETHBalance",
      "outputs": [
        {
          "internalType": "uint256",
          "name": "",
          "type": "uint256"
        }
      ],
      "stateMutability": "view",
      "type": "function",
      "constant": true
    },
    {
      "stateMutability": "payable",
      "type": "receive",
      "payable": true
    },
    {
      "inputs": [
        {
          "internalType": "address",
          "name": "token_",
          "type": "address"
        },
        {
          "internalType": "uint256",
          "name": "endTime_",
          "type": "uint256"
        },
        {
          "internalType": "uint256",
          "name": "tokenPerETHInCampaign_",
          "type": "uint256"
        },
        {
          "internalType": "uint256",
          "name": "maxTokenLiquidity_",
          "type": "uint256"
        }
      ],
      "name": "startCampaign",
      "outputs": [],
      "stateMutability": "nonpayable",
      "type": "function"
    },
    {
      "inputs": [],
      "name": "depositETH",
      "outputs": [],
      "stateMutability": "payable",
      "type": "function",
      "payable": true
    },
    {
      "inputs": [
        {
          "internalType": "uint256",
          "name": "campaignId_",
          "type": "uint256"
        }
      ],
      "name": "calculateMaxNormalPurchase",
      "outputs": [
        {
          "internalType": "uint256",
          "name": "",
          "type": "uint256"
        }
      ],
      "stateMutability": "view",
      "type": "function",
      "constant": true
    },
    {
      "inputs": [
        {
          "internalType": "uint256",
          "name": "campaignId_",
          "type": "uint256"
        },
        {
          "internalType": "uint256",
          "name": "amount_",
          "type": "uint256"
        }
      ],
      "name": "normalPurchase",
      "outputs": [],
      "stateMutability": "nonpayable",
      "type": "function"
    },
    {
      "inputs": [
        {
          "internalType": "uint256",
          "name": "campaignId_",
          "type": "uint256"
        }
      ],
      "name": "endCampaign",
      "outputs": [],
      "stateMutability": "nonpayable",
      "type": "function"
    },
    {
      "inputs": [
        {
          "internalType": "uint256",
          "name": "campaignId_",
          "type": "uint256"
        }
      ],
      "name": "getETH",
      "outputs": [],
      "stateMutability": "payable",
      "type": "function",
      "payable": true
    }
  ],
  "bytecode": "0x608060405234801561001057600080fd5b50600160008190555061101b806100286000396000f3fe6080604052600436106100955760003560e01c80638ed5b0fc116100595780638ed5b0fc146101a4578063aeaa4068146101cf578063c8ebadae146101f8578063dd0408ae14610235578063f6326fb31461025e5761009c565b8063141961bc146100a15780632835b45c146100e5578063373fd10814610101578063458a5f041461012a57806350d05a4a146101675761009c565b3661009c57005b600080fd5b3480156100ad57600080fd5b506100c860048036038101906100c39190610968565b610268565b6040516100dc9897969594939291906109e5565b60405180910390f35b6100ff60048036038101906100fa9190610968565b6102f0565b005b34801561010d57600080fd5b5061012860048036038101906101239190610a63565b610384565b005b34801561013657600080fd5b50610151600480360381019061014c9190610968565b610554565b60405161015e9190610aa3565b60405180910390f35b34801561017357600080fd5b5061018e60048036038101906101899190610aea565b6105e2565b60405161019b9190610aa3565b60405180910390f35b3480156101b057600080fd5b506101b96105fa565b6040516101c69190610aa3565b60405180910390f35b3480156101db57600080fd5b506101f660048036038101906101f19190610b17565b610600565b005b34801561020457600080fd5b5061021f600480360381019061021a9190610aea565b610899565b60405161022c9190610aa3565b60405180910390f35b34801561024157600080fd5b5061025c60048036038101906102579190610968565b6108b1565b005b6102666108d5565b005b60016020528060005260406000206000915090508060000160009054906101000a900473ffffffffffffffffffffffffffffffffffffffff16908060010154908060020160009054906101000a900473ffffffffffffffffffffffffffffffffffffffff16908060030154908060040154908060050154908060060154908060070154905088565b600060016000838152602001908152602001600020905060008160070154826006015461031d9190610bad565b905060003390508073ffffffffffffffffffffffffffffffffffffffff166108fc670de0b6b3a7640000846103529190610be1565b9081150290604051600060405180830381858888f1935050505015801561037d573d6000803e3d6000fd5b5050505050565b600060016000848152602001908152602001600020905060006103a684610554565b9050808311156103eb576040517f08c379a00000000000000000000000000000000000000000000000000000000081526004016103e290610c98565b60405180910390fd5b816006015482600701541115610436576040517f08c379a000000000000000000000000000000000000000000000000000000000815260040161042d90610d04565b60405180910390fd5b428260040154101561047d576040517f08c379a000000000000000000000000000000000000000000000000000000000815260040161047490610d70565b60405180910390fd5b8160020160009054906101000a900473ffffffffffffffffffffffffffffffffffffffff1673ffffffffffffffffffffffffffffffffffffffff1663a9059cbb33670de0b6b3a7640000866104d29190610be1565b6040518363ffffffff1660e01b81526004016104ef929190610d90565b6020604051808303816000875af115801561050e573d6000803e3d6000fd5b505050506040513d601f19601f820116820180604052508101906105329190610df1565b50828260070160008282546105479190610e1e565b9250508190555050505050565b6000806001600084815260200190815260200160002090506000600360003373ffffffffffffffffffffffffffffffffffffffff1673ffffffffffffffffffffffffffffffffffffffff1681526020019081526020016000205490506000670de0b6b3a76400008360050154836105cb9190610be1565b6105d59190610ea3565b9050809350505050919050565b60026020528060005260406000206000915090505481565b60005481565b600060016000805481526020019081526020016000209050600073ffffffffffffffffffffffffffffffffffffffff168160000160009054906101000a900473ffffffffffffffffffffffffffffffffffffffff1673ffffffffffffffffffffffffffffffffffffffff16146106ab576040517f08c379a00000000000000000000000000000000000000000000000000000000081526004016106a290610f46565b60405180910390fd5b338160000160006101000a81548173ffffffffffffffffffffffffffffffffffffffff021916908373ffffffffffffffffffffffffffffffffffffffff160217905550848160020160006101000a81548173ffffffffffffffffffffffffffffffffffffffff021916908373ffffffffffffffffffffffffffffffffffffffff1602179055504281600301819055508381600401819055508281600501819055508181600601819055508473ffffffffffffffffffffffffffffffffffffffff1663095ea7b330670de0b6b3a7640000856107869190610be1565b6040518363ffffffff1660e01b81526004016107a3929190610d90565b6020604051808303816000875af11580156107c2573d6000803e3d6000fd5b505050506040513d601f19601f820116820180604052508101906107e69190610df1565b508473ffffffffffffffffffffffffffffffffffffffff166323b872dd3330670de0b6b3a7640000866108199190610be1565b6040518463ffffffff1660e01b815260040161083793929190610f66565b6020604051808303816000875af1158015610856573d6000803e3d6000fd5b505050506040513d601f19601f8201168201806040525081019061087a9190610df1565b5060008081548092919061088d90610f9d565b91905055505050505050565b60036020528060005260406000206000915090505481565b60006001600083815260200190815260200160002090504281600401819055505050565b34600360003373ffffffffffffffffffffffffffffffffffffffff1673ffffffffffffffffffffffffffffffffffffffff16815260200190815260200160002060008282546109249190610e1e565b92505081905550565b600080fd5b6000819050919050565b61094581610932565b811461095057600080fd5b50565b6000813590506109628161093c565b92915050565b60006020828403121561097e5761097d61092d565b5b600061098c84828501610953565b91505092915050565b600073ffffffffffffffffffffffffffffffffffffffff82169050919050565b60006109c082610995565b9050919050565b6109d0816109b5565b82525050565b6109df81610932565b82525050565b6000610100820190506109fb600083018b6109c7565b610a08602083018a6109d6565b610a1560408301896109c7565b610a2260608301886109d6565b610a2f60808301876109d6565b610a3c60a08301866109d6565b610a4960c08301856109d6565b610a5660e08301846109d6565b9998505050505050505050565b60008060408385031215610a7a57610a7961092d565b5b6000610a8885828601610953565b9250506020610a9985828601610953565b9150509250929050565b6000602082019050610ab860008301846109d6565b92915050565b610ac7816109b5565b8114610ad257600080fd5b50565b600081359050610ae481610abe565b92915050565b600060208284031215610b0057610aff61092d565b5b6000610b0e84828501610ad5565b91505092915050565b60008060008060808587031215610b3157610b3061092d565b5b6000610b3f87828801610ad5565b9450506020610b5087828801610953565b9350506040610b6187828801610953565b9250506060610b7287828801610953565b91505092959194509250565b7f4e487b7100000000000000000000000000000000000000000000000000000000600052601160045260246000fd5b6000610bb882610932565b9150610bc383610932565b925082821015610bd657610bd5610b7e565b5b828203905092915050565b6000610bec82610932565b9150610bf783610932565b9250817fffffffffffffffffffffffffffffffffffffffffffffffffffffffffffffffff0483118215151615610c3057610c2f610b7e565b5b828202905092915050565b600082825260208201905092915050565b7f4e6f7420486176652053756666696369656e742042616c616e63650000000000600082015250565b6000610c82601b83610c3b565b9150610c8d82610c4c565b602082019050919050565b60006020820190508181036000830152610cb181610c75565b9050919050565b7f4d61782043617020486173204265656e20526561636865642100000000000000600082015250565b6000610cee601983610c3b565b9150610cf982610cb8565b602082019050919050565b60006020820190508181036000830152610d1d81610ce1565b9050919050565b7f50726573616c6520486173204265656e20436c6f736564210000000000000000600082015250565b6000610d5a601883610c3b565b9150610d6582610d24565b602082019050919050565b60006020820190508181036000830152610d8981610d4d565b9050919050565b6000604082019050610da560008301856109c7565b610db260208301846109d6565b9392505050565b60008115159050919050565b610dce81610db9565b8114610dd957600080fd5b50565b600081519050610deb81610dc5565b92915050565b600060208284031215610e0757610e0661092d565b5b6000610e1584828501610ddc565b91505092915050565b6000610e2982610932565b9150610e3483610932565b9250827fffffffffffffffffffffffffffffffffffffffffffffffffffffffffffffffff03821115610e6957610e68610b7e565b5b828201905092915050565b7f4e487b7100000000000000000000000000000000000000000000000000000000600052601260045260246000fd5b6000610eae82610932565b9150610eb983610932565b925082610ec957610ec8610e74565b5b828204905092915050565b7f43616d706169676e20486173204265656e20416c72656164792043726561746560008201527f6421000000000000000000000000000000000000000000000000000000000000602082015250565b6000610f30602283610c3b565b9150610f3b82610ed4565b604082019050919050565b60006020820190508181036000830152610f5f81610f23565b9050919050565b6000606082019050610f7b60008301866109c7565b610f8860208301856109c7565b610f9560408301846109d6565b949350505050565b6000610fa882610932565b91507fffffffffffffffffffffffffffffffffffffffffffffffffffffffffffffffff8203610fda57610fd9610b7e565b5b60018201905091905056fea2646970667358221220a1954dc677b999eb58605211e1c9c499fd788b6a0abac2b7d3c11a135629be7c64736f6c634300080d0033",
  "immutableReferences": {},
  "source": "//SPDX-License-Identifier: MIT \npragma solidity ^0.8.0;\n\ninterface IERC20 {\n    /**\n     * @dev Returns the amount of tokens in existence.\n     */\n    function totalSupply() external view returns (uint256);\n\n    /**\n     * @dev Returns the amount of tokens owned by `account`.\n     */\n    function balanceOf(address account) external view returns (uint256);\n\n    /**\n     * @dev Moves `amount` tokens from the caller's account to `to`.\n     *\n     * Returns a boolean value indicating whether the operation succeeded.\n     *\n     * Emits a {Transfer} event.\n     */\n    function transfer(address to, uint256 amount) external returns (bool);\n\n    /**\n     * @dev Returns the remaining number of tokens that `spender` will be\n     * allowed to spend on behalf of `owner` through {transferFrom}. This is\n     * zero by default.\n     *\n     * This value changes when {approve} or {transferFrom} are called.\n     */\n    function allowance(address owner, address spender) external view returns (uint256);\n\n    /**\n     * @dev Sets `amount` as the allowance of `spender` over the caller's tokens.\n     *\n     * Returns a boolean value indicating whether the operation succeeded.\n     *\n     * IMPORTANT: Beware that changing an allowance with this method brings the risk\n     * that someone may use both the old and the new allowance by unfortunate\n     * transaction ordering. One possible solution to mitigate this race\n     * condition is to first reduce the spender's allowance to 0 and set the\n     * desired value afterwards:\n     * https://github.com/ethereum/EIPs/issues/20#issuecomment-263524729\n     *\n     * Emits an {Approval} event.\n     */\n    function approve(address spender, uint256 amount) external returns (bool);\n\n    /**\n     * @dev Moves `amount` tokens from `from` to `to` using the\n     * allowance mechanism. `amount` is then deducted from the caller's\n     * allowance.\n     *\n     * Returns a boolean value indicating whether the operation succeeded.\n     *\n     * Emits a {Transfer} event.\n     */\n    function transferFrom(\n        address from,\n        address to,\n        uint256 amount\n    ) external returns (bool);\n\n    /**\n     * @dev Emitted when `value` tokens are moved from one account (`from`) to\n     * another (`to`).\n     *\n     * Note that `value` may be zero.\n     */\n    event Transfer(address indexed from, address indexed to, uint256 value);\n\n    /**\n     * @dev Emitted when the allowance of a `spender` for an `owner` is set by\n     * a call to {approve}. `value` is the new allowance.\n     */\n    event Approval(address indexed owner, address indexed spender, uint256 value);\n}\n\ncontract ICO {\n\n    uint public campaignId;\n\n    constructor() {\n        campaignId = 1;\n    }\n\n    struct Campaign {\n        address initiator;\n        uint participant;\n        address tokenAddress;\n        uint campaignStartTime;\n        uint campaignEndTime;\n        uint tokenPerETHInCampaign;\n        uint maxTokenLiquidity;\n        uint tokenLiquidityAchived;\n    }\n\n    mapping(uint => Campaign) public campaigns;\n    mapping(address => uint) public userDepositedCampaigns;\n    mapping(address => uint) public userETHBalance;\n\n    receive () payable external {\n\n    }\n\n    function startCampaign(\n        address token_, \n        uint endTime_, \n        uint tokenPerETHInCampaign_, \n        uint maxTokenLiquidity_\n    ) \n    public \n    {\n        Campaign storage campaign = campaigns[campaignId];\n        require(campaign.initiator == address(0), \"Campaign Has Been Already Created!\");\n        campaign.initiator = msg.sender;\n        campaign.tokenAddress = token_;\n        campaign.campaignStartTime = block.timestamp;\n        campaign.campaignEndTime = endTime_;\n        campaign.tokenPerETHInCampaign = tokenPerETHInCampaign_;\n        campaign.maxTokenLiquidity = maxTokenLiquidity_;\n        IERC20(token_).approve(address(this), maxTokenLiquidity_ * 1e18);\n        IERC20(token_).transferFrom(msg.sender,address(this), maxTokenLiquidity_ * 1e18);\n        campaignId++;\n    }\n\n    function depositETH() public payable {\n        userETHBalance[msg.sender] += msg.value;\n    }\n\n    function calculateMaxNormalPurchase(uint campaignId_) public view returns (uint) {\n        Campaign storage campaign = campaigns[campaignId_];\n        uint balance_ = userETHBalance[msg.sender];\n        uint maxPurchase_ = uint(balance_ * campaign.tokenPerETHInCampaign/1e18);\n        return maxPurchase_;\n    }\n\n    function normalPurchase(\n        uint campaignId_,\n        uint amount_\n    )\n    public\n    {\n        Campaign storage campaign = campaigns[campaignId_];\n        uint balance_ = calculateMaxNormalPurchase(campaignId_);\n        require(amount_ <= balance_, \"Not Have Sufficient Balance\");\n        require(campaign.tokenLiquidityAchived <= campaign.maxTokenLiquidity,\"Max Cap Has Been Reached!\");\n        require(campaign.campaignEndTime >= block.timestamp, \"Presale Has Been Closed!\");\n        IERC20(campaign.tokenAddress).transfer(msg.sender, amount_ * 1e18);\n        campaign.tokenLiquidityAchived += amount_;\n    }\n\n    function endCampaign(\n        uint campaignId_\n    )\n    public\n    {\n        Campaign storage campaign = campaigns[campaignId_];\n        campaign.campaignEndTime = block.timestamp;     \n    }\n\n    function getETH(\n        uint campaignId_\n    ) \n    public\n    payable\n    {\n        Campaign storage campaign = campaigns[campaignId_];\n        uint amountToBeReverted = campaign.maxTokenLiquidity - campaign.tokenLiquidityAchived;\n        address payable initiator_ = payable(msg.sender);\n        initiator_.transfer(amountToBeReverted * 1e18);\n    }\n\n}",
  "sourcePath": "/home/bhavya/ICO_Launchpad/backend/contracts/ICOwoPresale.sol",
  "compiler": {
    "name": "solc",
    "version": "0.8.13+commit.abaa5c0e.Emscripten.clang"
  },
  "schemaVersion": "3.4.4",
  "updatedAt": "2022-04-04T16:49:06.553Z",
  "networkType": "ethereum",
  "devdoc": {
    "kind": "dev",
    "methods": {},
    "version": 1
  },
  "userdoc": {
    "kind": "user",
    "methods": {},
    "version": 1
  }
}